{"abi":[{"type":"constructor","inputs":[{"name":"_lpToken","type":"address","internalType":"address"},{"name":"_rewardToken","type":"address","internalType":"address"},{"name":"_rewardRate","type":"uint256","internalType":"uint256"}],"stateMutability":"nonpayable"},{"type":"function","name":"accRewardPerShare","inputs":[],"outputs":[{"name":"","type":"uint256","internalType":"uint256"}],"stateMutability":"view"},{"type":"function","name":"balanceOf","inputs":[{"name":"","type":"address","internalType":"address"}],"outputs":[{"name":"","type":"uint256","internalType":"uint256"}],"stateMutability":"view"},{"type":"function","name":"claim","inputs":[],"outputs":[],"stateMutability":"nonpayable"},{"type":"function","name":"deposit","inputs":[{"name":"amount","type":"uint256","internalType":"uint256"}],"outputs":[],"stateMutability":"nonpayable"},{"type":"function","name":"lastRewardTime","inputs":[],"outputs":[{"name":"","type":"uint256","internalType":"uint256"}],"stateMutability":"view"},{"type":"function","name":"lpToken","inputs":[],"outputs":[{"name":"","type":"address","internalType":"contract IERC20"}],"stateMutability":"view"},{"type":"function","name":"pendingRewards","inputs":[{"name":"","type":"address","internalType":"address"}],"outputs":[{"name":"","type":"uint256","internalType":"uint256"}],"stateMutability":"view"},{"type":"function","name":"rewardDebt","inputs":[{"name":"","type":"address","internalType":"address"}],"outputs":[{"name":"","type":"uint256","internalType":"uint256"}],"stateMutability":"view"},{"type":"function","name":"rewardRate","inputs":[],"outputs":[{"name":"","type":"uint256","internalType":"uint256"}],"stateMutability":"view"},{"type":"function","name":"rewardToken","inputs":[],"outputs":[{"name":"","type":"address","internalType":"contract IERC20"}],"stateMutability":"view"},{"type":"function","name":"updatePool","inputs":[],"outputs":[],"stateMutability":"nonpayable"},{"type":"function","name":"withdraw","inputs":[{"name":"amount","type":"uint256","internalType":"uint256"}],"outputs":[],"stateMutability":"nonpayable"}],"bytecode":{"object":"0x608060405234801561000f575f5ffd5b5060405161117438038061117483398181016040528101906100319190610157565b825f5f6101000a81548173ffffffffffffffffffffffffffffffffffffffff021916908373ffffffffffffffffffffffffffffffffffffffff1602179055508160015f6101000a81548173ffffffffffffffffffffffffffffffffffffffff021916908373ffffffffffffffffffffffffffffffffffffffff16021790555080600781905550426006819055505050506101a7565b5f5ffd5b5f73ffffffffffffffffffffffffffffffffffffffff82169050919050565b5f6100f3826100ca565b9050919050565b610103816100e9565b811461010d575f5ffd5b50565b5f8151905061011e816100fa565b92915050565b5f819050919050565b61013681610124565b8114610140575f5ffd5b50565b5f815190506101518161012d565b92915050565b5f5f5f6060848603121561016e5761016d6100c6565b5b5f61017b86828701610110565b935050602061018c86828701610110565b925050604061019d86828701610143565b9150509250925092565b610fc0806101b45f395ff3fe608060405234801561000f575f5ffd5b50600436106100b2575f3560e01c80637b0a47ee1161006f5780637b0a47ee1461018a5780639231cf74146101a8578063939d6237146101c6578063b6b55f25146101e4578063e3161ddd14610200578063f7c618c11461020a576100b2565b80632e1a7d4d146100b657806331d7a262146100d25780634e71d92d146101025780635873eb9b1461010c5780635fcbd2851461013c57806370a082311461015a575b5f5ffd5b6100d060048036038101906100cb9190610bea565b610228565b005b6100ec60048036038101906100e79190610c6f565b6104b8565b6040516100f99190610ca9565b60405180910390f35b61010a6104cd565b005b61012660048036038101906101219190610c6f565b610744565b6040516101339190610ca9565b60405180910390f35b610144610759565b6040516101519190610d1d565b60405180910390f35b610174600480360381019061016f9190610c6f565b61077d565b6040516101819190610ca9565b60405180910390f35b610192610792565b60405161019f9190610ca9565b60405180910390f35b6101b0610798565b6040516101bd9190610ca9565b60405180910390f35b6101ce61079e565b6040516101db9190610ca9565b60405180910390f35b6101fe60048036038101906101f99190610bea565b6107a4565b005b610208610a7c565b005b610212610b8e565b60405161021f9190610d1d565b60405180910390f35b610230610a7c565b5f60035f3373ffffffffffffffffffffffffffffffffffffffff1673ffffffffffffffffffffffffffffffffffffffff1681526020019081526020015f205464e8d4a5100060055460025f3373ffffffffffffffffffffffffffffffffffffffff1673ffffffffffffffffffffffffffffffffffffffff1681526020019081526020015f20546102c09190610d63565b6102ca9190610dd1565b6102d49190610e01565b90508060045f3373ffffffffffffffffffffffffffffffffffffffff1673ffffffffffffffffffffffffffffffffffffffff1681526020019081526020015f205f8282546103229190610e34565b925050819055508160025f3373ffffffffffffffffffffffffffffffffffffffff1673ffffffffffffffffffffffffffffffffffffffff1681526020019081526020015f205f8282546103759190610e01565b925050819055505f5f9054906101000a900473ffffffffffffffffffffffffffffffffffffffff1673ffffffffffffffffffffffffffffffffffffffff1663a9059cbb33846040518363ffffffff1660e01b81526004016103d7929190610e76565b6020604051808303815f875af11580156103f3573d5f5f3e3d5ffd5b505050506040513d601f19601f820116820180604052508101906104179190610ed2565b5064e8d4a5100060055460025f3373ffffffffffffffffffffffffffffffffffffffff1673ffffffffffffffffffffffffffffffffffffffff1681526020019081526020015f20546104699190610d63565b6104739190610dd1565b60035f3373ffffffffffffffffffffffffffffffffffffffff1673ffffffffffffffffffffffffffffffffffffffff1681526020019081526020015f20819055505050565b6004602052805f5260405f205f915090505481565b6104d5610a7c565b5f60035f3373ffffffffffffffffffffffffffffffffffffffff1673ffffffffffffffffffffffffffffffffffffffff1681526020019081526020015f205464e8d4a5100060055460025f3373ffffffffffffffffffffffffffffffffffffffff1673ffffffffffffffffffffffffffffffffffffffff1681526020019081526020015f20546105659190610d63565b61056f9190610dd1565b6105799190610e01565b905060045f3373ffffffffffffffffffffffffffffffffffffffff1673ffffffffffffffffffffffffffffffffffffffff1681526020019081526020015f2054816105c49190610e34565b90505f60045f3373ffffffffffffffffffffffffffffffffffffffff1673ffffffffffffffffffffffffffffffffffffffff1681526020019081526020015f208190555064e8d4a5100060055460025f3373ffffffffffffffffffffffffffffffffffffffff1673ffffffffffffffffffffffffffffffffffffffff1681526020019081526020015f20546106599190610d63565b6106639190610dd1565b60035f3373ffffffffffffffffffffffffffffffffffffffff1673ffffffffffffffffffffffffffffffffffffffff1681526020019081526020015f208190555060015f9054906101000a900473ffffffffffffffffffffffffffffffffffffffff1673ffffffffffffffffffffffffffffffffffffffff1663a9059cbb33836040518363ffffffff1660e01b8152600401610700929190610e76565b6020604051808303815f875af115801561071c573d5f5f3e3d5ffd5b505050506040513d601f19601f820116820180604052508101906107409190610ed2565b5050565b6003602052805f5260405f205f915090505481565b5f5f9054906101000a900473ffffffffffffffffffffffffffffffffffffffff1681565b6002602052805f5260405f205f915090505481565b60075481565b60065481565b60055481565b6107ac610a7c565b5f60025f3373ffffffffffffffffffffffffffffffffffffffff1673ffffffffffffffffffffffffffffffffffffffff1681526020019081526020015f205411156108ec575f60035f3373ffffffffffffffffffffffffffffffffffffffff1673ffffffffffffffffffffffffffffffffffffffff1681526020019081526020015f205464e8d4a5100060055460025f3373ffffffffffffffffffffffffffffffffffffffff1673ffffffffffffffffffffffffffffffffffffffff1681526020019081526020015f20546108819190610d63565b61088b9190610dd1565b6108959190610e01565b90508060045f3373ffffffffffffffffffffffffffffffffffffffff1673ffffffffffffffffffffffffffffffffffffffff1681526020019081526020015f205f8282546108e39190610e34565b92505081905550505b5f5f9054906101000a900473ffffffffffffffffffffffffffffffffffffffff1673ffffffffffffffffffffffffffffffffffffffff166323b872dd3330846040518463ffffffff1660e01b815260040161094993929190610efd565b6020604051808303815f875af1158015610965573d5f5f3e3d5ffd5b505050506040513d601f19601f820116820180604052508101906109899190610ed2565b508060025f3373ffffffffffffffffffffffffffffffffffffffff1673ffffffffffffffffffffffffffffffffffffffff1681526020019081526020015f205f8282546109d69190610e34565b9250508190555064e8d4a5100060055460025f3373ffffffffffffffffffffffffffffffffffffffff1673ffffffffffffffffffffffffffffffffffffffff1681526020019081526020015f2054610a2e9190610d63565b610a389190610dd1565b60035f3373ffffffffffffffffffffffffffffffffffffffff1673ffffffffffffffffffffffffffffffffffffffff1681526020019081526020015f208190555050565b5f5f5f9054906101000a900473ffffffffffffffffffffffffffffffffffffffff1673ffffffffffffffffffffffffffffffffffffffff166370a08231306040518263ffffffff1660e01b8152600401610ad69190610f32565b602060405180830381865afa158015610af1573d5f5f3e3d5ffd5b505050506040513d601f19601f82011682018060405250810190610b159190610f5f565b905060065442118015610b2757505f81115b15610b8b575f60065442610b3b9190610e01565b90505f60075482610b4c9190610d63565b90508264e8d4a5100082610b609190610d63565b610b6a9190610dd1565b60055f828254610b7a9190610e34565b925050819055504260068190555050505b50565b60015f9054906101000a900473ffffffffffffffffffffffffffffffffffffffff1681565b5f5ffd5b5f819050919050565b610bc981610bb7565b8114610bd3575f5ffd5b50565b5f81359050610be481610bc0565b92915050565b5f60208284031215610bff57610bfe610bb3565b5b5f610c0c84828501610bd6565b91505092915050565b5f73ffffffffffffffffffffffffffffffffffffffff82169050919050565b5f610c3e82610c15565b9050919050565b610c4e81610c34565b8114610c58575f5ffd5b50565b5f81359050610c6981610c45565b92915050565b5f60208284031215610c8457610c83610bb3565b5b5f610c9184828501610c5b565b91505092915050565b610ca381610bb7565b82525050565b5f602082019050610cbc5f830184610c9a565b92915050565b5f819050919050565b5f610ce5610ce0610cdb84610c15565b610cc2565b610c15565b9050919050565b5f610cf682610ccb565b9050919050565b5f610d0782610cec565b9050919050565b610d1781610cfd565b82525050565b5f602082019050610d305f830184610d0e565b92915050565b7f4e487b71000000000000000000000000000000000000000000000000000000005f52601160045260245ffd5b5f610d6d82610bb7565b9150610d7883610bb7565b9250828202610d8681610bb7565b91508282048414831517610d9d57610d9c610d36565b5b5092915050565b7f4e487b71000000000000000000000000000000000000000000000000000000005f52601260045260245ffd5b5f610ddb82610bb7565b9150610de683610bb7565b925082610df657610df5610da4565b5b828204905092915050565b5f610e0b82610bb7565b9150610e1683610bb7565b9250828203905081811115610e2e57610e2d610d36565b5b92915050565b5f610e3e82610bb7565b9150610e4983610bb7565b9250828201905080821115610e6157610e60610d36565b5b92915050565b610e7081610c34565b82525050565b5f604082019050610e895f830185610e67565b610e966020830184610c9a565b9392505050565b5f8115159050919050565b610eb181610e9d565b8114610ebb575f5ffd5b50565b5f81519050610ecc81610ea8565b92915050565b5f60208284031215610ee757610ee6610bb3565b5b5f610ef484828501610ebe565b91505092915050565b5f606082019050610f105f830186610e67565b610f1d6020830185610e67565b610f2a6040830184610c9a565b949350505050565b5f602082019050610f455f830184610e67565b92915050565b5f81519050610f5981610bc0565b92915050565b5f60208284031215610f7457610f73610bb3565b5b5f610f8184828501610f4b565b9150509291505056fea2646970667358221220806239c4844b796f7c0bd08ecfae6d12f8055091e5945ee179a52e18e9a3387f64736f6c634300081d0033","linkReferences":{}},"methodIdentifiers":{"accRewardPerShare()":"939d6237","balanceOf(address)":"70a08231","claim()":"4e71d92d","deposit(uint256)":"b6b55f25","lastRewardTime()":"9231cf74","lpToken()":"5fcbd285","pendingRewards(address)":"31d7a262","rewardDebt(address)":"5873eb9b","rewardRate()":"7b0a47ee","rewardToken()":"f7c618c1","updatePool()":"e3161ddd","withdraw(uint256)":"2e1a7d4d"},"id":1}