{"abi":[{"type":"constructor","inputs":[{"name":"_ve","type":"address","internalType":"address"}],"stateMutability":"nonpayable"},{"type":"function","name":"createProposal","inputs":[{"name":"desc","type":"string","internalType":"string"},{"name":"duration","type":"uint256","internalType":"uint256"}],"outputs":[],"stateMutability":"nonpayable"},{"type":"function","name":"execute","inputs":[{"name":"proposalId","type":"uint256","internalType":"uint256"}],"outputs":[],"stateMutability":"nonpayable"},{"type":"function","name":"proposals","inputs":[{"name":"","type":"uint256","internalType":"uint256"}],"outputs":[{"name":"description","type":"string","internalType":"string"},{"name":"voteYes","type":"uint256","internalType":"uint256"},{"name":"voteNo","type":"uint256","internalType":"uint256"},{"name":"endTime","type":"uint256","internalType":"uint256"},{"name":"executed","type":"bool","internalType":"bool"}],"stateMutability":"view"},{"type":"function","name":"ve","inputs":[],"outputs":[{"name":"","type":"address","internalType":"contract veCRV"}],"stateMutability":"view"},{"type":"function","name":"vote","inputs":[{"name":"proposalId","type":"uint256","internalType":"uint256"},{"name":"support","type":"bool","internalType":"bool"}],"outputs":[],"stateMutability":"nonpayable"},{"type":"function","name":"voted","inputs":[{"name":"","type":"uint256","internalType":"uint256"},{"name":"","type":"address","internalType":"address"}],"outputs":[{"name":"","type":"bool","internalType":"bool"}],"stateMutability":"view"}],"bytecode":{"object":"0x608060405234801561000f575f5ffd5b506040516112d03803806112d0833981810160405281019061003191906100d4565b805f5f6101000a81548173ffffffffffffffffffffffffffffffffffffffff021916908373ffffffffffffffffffffffffffffffffffffffff160217905550506100ff565b5f5ffd5b5f73ffffffffffffffffffffffffffffffffffffffff82169050919050565b5f6100a38261007a565b9050919050565b6100b381610099565b81146100bd575f5ffd5b50565b5f815190506100ce816100aa565b92915050565b5f602082840312156100e9576100e8610076565b5b5f6100f6848285016100c0565b91505092915050565b6111c48061010c5f395ff3fe608060405234801561000f575f5ffd5b5060043610610060575f3560e01c8063013cf08b146100645780631f8507161461009857806335facf78146100b65780635277b4ae146100d2578063c9d27afe14610102578063fe0d94c11461011e575b5f5ffd5b61007e60048036038101906100799190610738565b61013a565b60405161008f9594939291906107fc565b60405180910390f35b6100a061020d565b6040516100ad91906108ce565b60405180910390f35b6100d060048036038101906100cb9190610a13565b610231565b005b6100ec60048036038101906100e79190610aa8565b6102e4565b6040516100f99190610ae6565b60405180910390f35b61011c60048036038101906101179190610b29565b61030e565b005b61013860048036038101906101339190610738565b6105d0565b005b60018181548110610149575f80fd5b905f5260205f2090600502015f91509050805f01805461016890610b94565b80601f016020809104026020016040519081016040528092919081815260200182805461019490610b94565b80156101df5780601f106101b6576101008083540402835291602001916101df565b820191905f5260205f20905b8154815290600101906020018083116101c257829003601f168201915b505050505090806001015490806002015490806003015490806004015f9054906101000a900460ff16905085565b5f5f9054906101000a900473ffffffffffffffffffffffffffffffffffffffff1681565b60016040518060a001604052808481526020015f81526020015f8152602001834261025c9190610bf1565b81526020015f1515815250908060018154018082558091505060019003905f5260205f2090600502015f909190919091505f820151815f0190816102a09190610dbb565b506020820151816001015560408201518160020155606082015181600301556080820151816004015f6101000a81548160ff02191690831515021790555050505050565b6002602052815f5260405f20602052805f5260405f205f915091509054906101000a900460ff1681565b6001828154811061032257610321610e8a565b5b905f5260205f209060050201600301544210610373576040517f08c379a000000000000000000000000000000000000000000000000000000000815260040161036a90610f01565b60405180910390fd5b60025f8381526020019081526020015f205f3373ffffffffffffffffffffffffffffffffffffffff1673ffffffffffffffffffffffffffffffffffffffff1681526020019081526020015f205f9054906101000a900460ff161561040c576040517f08c379a000000000000000000000000000000000000000000000000000000000815260040161040390610f69565b60405180910390fd5b5f5f5f9054906101000a900473ffffffffffffffffffffffffffffffffffffffff1673ffffffffffffffffffffffffffffffffffffffff16639ab24eb0336040518263ffffffff1660e01b81526004016104669190610f96565b602060405180830381865afa158015610481573d5f5f3e3d5ffd5b505050506040513d601f19601f820116820180604052508101906104a59190610fc3565b90505f81116104e9576040517f08c379a00000000000000000000000000000000000000000000000000000000081526004016104e090611038565b60405180910390fd5b811561052d57806001848154811061050457610503610e8a565b5b905f5260205f2090600502016001015f8282546105219190610bf1565b92505081905550610567565b806001848154811061054257610541610e8a565b5b905f5260205f2090600502016002015f82825461055f9190610bf1565b925050819055505b600160025f8581526020019081526020015f205f3373ffffffffffffffffffffffffffffffffffffffff1673ffffffffffffffffffffffffffffffffffffffff1681526020019081526020015f205f6101000a81548160ff021916908315150217905550505050565b5f600182815481106105e5576105e4610e8a565b5b905f5260205f209060050201905080600301544211610639576040517f08c379a0000000000000000000000000000000000000000000000000000000008152600401610630906110a0565b60405180910390fd5b806004015f9054906101000a900460ff161561068a576040517f08c379a000000000000000000000000000000000000000000000000000000000815260040161068190611108565b60405180910390fd5b80600201548160010154116106d4576040517f08c379a00000000000000000000000000000000000000000000000000000000081526004016106cb90611170565b60405180910390fd5b6001816004015f6101000a81548160ff0219169083151502179055505050565b5f604051905090565b5f5ffd5b5f5ffd5b5f819050919050565b61071781610705565b8114610721575f5ffd5b50565b5f813590506107328161070e565b92915050565b5f6020828403121561074d5761074c6106fd565b5b5f61075a84828501610724565b91505092915050565b5f81519050919050565b5f82825260208201905092915050565b8281835e5f83830152505050565b5f601f19601f8301169050919050565b5f6107a582610763565b6107af818561076d565b93506107bf81856020860161077d565b6107c88161078b565b840191505092915050565b6107dc81610705565b82525050565b5f8115159050919050565b6107f6816107e2565b82525050565b5f60a0820190508181035f830152610814818861079b565b905061082360208301876107d3565b61083060408301866107d3565b61083d60608301856107d3565b61084a60808301846107ed565b9695505050505050565b5f73ffffffffffffffffffffffffffffffffffffffff82169050919050565b5f819050919050565b5f61089661089161088c84610854565b610873565b610854565b9050919050565b5f6108a78261087c565b9050919050565b5f6108b88261089d565b9050919050565b6108c8816108ae565b82525050565b5f6020820190506108e15f8301846108bf565b92915050565b5f5ffd5b5f5ffd5b7f4e487b71000000000000000000000000000000000000000000000000000000005f52604160045260245ffd5b6109258261078b565b810181811067ffffffffffffffff82111715610944576109436108ef565b5b80604052505050565b5f6109566106f4565b9050610962828261091c565b919050565b5f67ffffffffffffffff821115610981576109806108ef565b5b61098a8261078b565b9050602081019050919050565b828183375f83830152505050565b5f6109b76109b284610967565b61094d565b9050828152602081018484840111156109d3576109d26108eb565b5b6109de848285610997565b509392505050565b5f82601f8301126109fa576109f96108e7565b5b8135610a0a8482602086016109a5565b91505092915050565b5f5f60408385031215610a2957610a286106fd565b5b5f83013567ffffffffffffffff811115610a4657610a45610701565b5b610a52858286016109e6565b9250506020610a6385828601610724565b9150509250929050565b5f610a7782610854565b9050919050565b610a8781610a6d565b8114610a91575f5ffd5b50565b5f81359050610aa281610a7e565b92915050565b5f5f60408385031215610abe57610abd6106fd565b5b5f610acb85828601610724565b9250506020610adc85828601610a94565b9150509250929050565b5f602082019050610af95f8301846107ed565b92915050565b610b08816107e2565b8114610b12575f5ffd5b50565b5f81359050610b2381610aff565b92915050565b5f5f60408385031215610b3f57610b3e6106fd565b5b5f610b4c85828601610724565b9250506020610b5d85828601610b15565b9150509250929050565b7f4e487b71000000000000000000000000000000000000000000000000000000005f52602260045260245ffd5b5f6002820490506001821680610bab57607f821691505b602082108103610bbe57610bbd610b67565b5b50919050565b7f4e487b71000000000000000000000000000000000000000000000000000000005f52601160045260245ffd5b5f610bfb82610705565b9150610c0683610705565b9250828201905080821115610c1e57610c1d610bc4565b5b92915050565b5f819050815f5260205f209050919050565b5f6020601f8301049050919050565b5f82821b905092915050565b5f60088302610c807fffffffffffffffffffffffffffffffffffffffffffffffffffffffffffffffff82610c45565b610c8a8683610c45565b95508019841693508086168417925050509392505050565b5f610cbc610cb7610cb284610705565b610873565b610705565b9050919050565b5f819050919050565b610cd583610ca2565b610ce9610ce182610cc3565b848454610c51565b825550505050565b5f5f905090565b610d00610cf1565b610d0b818484610ccc565b505050565b5b81811015610d2e57610d235f82610cf8565b600181019050610d11565b5050565b601f821115610d7357610d4481610c24565b610d4d84610c36565b81016020851015610d5c578190505b610d70610d6885610c36565b830182610d10565b50505b505050565b5f82821c905092915050565b5f610d935f1984600802610d78565b1980831691505092915050565b5f610dab8383610d84565b9150826002028217905092915050565b610dc482610763565b67ffffffffffffffff811115610ddd57610ddc6108ef565b5b610de78254610b94565b610df2828285610d32565b5f60209050601f831160018114610e23575f8415610e11578287015190505b610e1b8582610da0565b865550610e82565b601f198416610e3186610c24565b5f5b82811015610e5857848901518255600182019150602085019450602081019050610e33565b86831015610e755784890151610e71601f891682610d84565b8355505b6001600288020188555050505b505050505050565b7f4e487b71000000000000000000000000000000000000000000000000000000005f52603260045260245ffd5b7f566f74696e6720656e64656400000000000000000000000000000000000000005f82015250565b5f610eeb600c8361076d565b9150610ef682610eb7565b602082019050919050565b5f6020820190508181035f830152610f1881610edf565b9050919050565b7f416c726561647920766f746564000000000000000000000000000000000000005f82015250565b5f610f53600d8361076d565b9150610f5e82610f1f565b602082019050919050565b5f6020820190508181035f830152610f8081610f47565b9050919050565b610f9081610a6d565b82525050565b5f602082019050610fa95f830184610f87565b92915050565b5f81519050610fbd8161070e565b92915050565b5f60208284031215610fd857610fd76106fd565b5b5f610fe584828501610faf565b91505092915050565b7f4e6f20766f74696e6720706f77657200000000000000000000000000000000005f82015250565b5f611022600f8361076d565b915061102d82610fee565b602082019050919050565b5f6020820190508181035f83015261104f81611016565b9050919050565b7f546f6f206561726c7900000000000000000000000000000000000000000000005f82015250565b5f61108a60098361076d565b915061109582611056565b602082019050919050565b5f6020820190508181035f8301526110b78161107e565b9050919050565b7f416c7265616479206578656375746564000000000000000000000000000000005f82015250565b5f6110f260108361076d565b91506110fd826110be565b602082019050919050565b5f6020820190508181035f83015261111f816110e6565b9050919050565b7f50726f706f73616c206661696c656400000000000000000000000000000000005f82015250565b5f61115a600f8361076d565b915061116582611126565b602082019050919050565b5f6020820190508181035f8301526111878161114e565b905091905056fea2646970667358221220a49eee3cd564adbf2f23bb1497be6c8fdff7271be720f0c32dc38a6cc569576264736f6c634300081d0033","linkReferences":{}},"methodIdentifiers":{"createProposal(string,uint256)":"35facf78","execute(uint256)":"fe0d94c1","proposals(uint256)":"013cf08b","ve()":"1f850716","vote(uint256,bool)":"c9d27afe","voted(uint256,address)":"5277b4ae"},"id":1}