{"abi":[{"type":"constructor","inputs":[{"name":"_token0","type":"address","internalType":"address"},{"name":"_token1","type":"address","internalType":"address"}],"stateMutability":"nonpayable"},{"type":"function","name":"A","inputs":[],"outputs":[{"name":"","type":"uint256","internalType":"uint256"}],"stateMutability":"view"},{"type":"function","name":"addLiquidity","inputs":[{"name":"amount0","type":"uint256","internalType":"uint256"},{"name":"amount1","type":"uint256","internalType":"uint256"}],"outputs":[],"stateMutability":"nonpayable"},{"type":"function","name":"getD","inputs":[],"outputs":[{"name":"D","type":"uint256","internalType":"uint256"}],"stateMutability":"view"},{"type":"function","name":"lpToken","inputs":[],"outputs":[{"name":"","type":"address","internalType":"contract LPToken"}],"stateMutability":"view"},{"type":"function","name":"swap","inputs":[{"name":"from","type":"address","internalType":"address"},{"name":"to","type":"address","internalType":"address"},{"name":"dx","type":"uint256","internalType":"uint256"}],"outputs":[],"stateMutability":"nonpayable"},{"type":"function","name":"token0","inputs":[],"outputs":[{"name":"","type":"address","internalType":"address"}],"stateMutability":"view"},{"type":"function","name":"token1","inputs":[],"outputs":[{"name":"","type":"address","internalType":"address"}],"stateMutability":"view"},{"type":"function","name":"totalSupply","inputs":[],"outputs":[{"name":"","type":"uint256","internalType":"uint256"}],"stateMutability":"view"}],"bytecode":{"object":"0x60806040526064600355348015610014575f5ffd5b50604051612c1e380380612c1e83398181016040528101906100369190610195565b815f5f6101000a81548173ffffffffffffffffffffffffffffffffffffffff021916908373ffffffffffffffffffffffffffffffffffffffff1602179055508060015f6101000a81548173ffffffffffffffffffffffffffffffffffffffff021916908373ffffffffffffffffffffffffffffffffffffffff1602179055506040516100c19061012a565b6100ca90610277565b604051809103905ff0801580156100e3573d5f5f3e3d5ffd5b5060025f6101000a81548173ffffffffffffffffffffffffffffffffffffffff021916908373ffffffffffffffffffffffffffffffffffffffff16021790555050506102a8565b611669806115b583390190565b5f5ffd5b5f73ffffffffffffffffffffffffffffffffffffffff82169050919050565b5f6101648261013b565b9050919050565b6101748161015a565b811461017e575f5ffd5b50565b5f8151905061018f8161016b565b92915050565b5f5f604083850312156101ab576101aa610137565b5b5f6101b885828601610181565b92505060206101c985828601610181565b9150509250929050565b5f82825260208201905092915050565b7f4375727665204c500000000000000000000000000000000000000000000000005f82015250565b5f6102176008836101d3565b9150610222826101e3565b602082019050919050565b7f6372764c500000000000000000000000000000000000000000000000000000005f82015250565b5f6102616005836101d3565b915061026c8261022d565b602082019050919050565b5f6040820190508181035f83015261028e8161020b565b905081810360208301526102a181610255565b9050919050565b611300806102b55f395ff3fe608060405234801561000f575f5ffd5b5060043610610086575f3560e01c80639cd441da116100595780639cd441da14610102578063d21220a71461011e578063df791e501461013c578063f446c1d01461015857610086565b80630dfe16811461008a57806318160ddd146100a85780631a14ff7a146100c65780635fcbd285146100e4575b5f5ffd5b610092610176565b60405161009f9190610d58565b60405180910390f35b6100b061019a565b6040516100bd9190610d89565b60405180910390f35b6100ce6101a0565b6040516100db9190610d89565b60405180910390f35b6100ec610379565b6040516100f99190610dfd565b60405180910390f35b61011c60048036038101906101179190610e44565b61039e565b005b6101266105d1565b6040516101339190610d58565b60405180910390f35b61015660048036038101906101519190610eac565b6105f6565b005b610160610a4d565b60405161016d9190610d89565b60405180910390f35b5f5f9054906101000a900473ffffffffffffffffffffffffffffffffffffffff1681565b60045481565b5f5f600267ffffffffffffffff8111156101bd576101bc610efc565b5b6040519080825280602002602001820160405280156101eb5781602001602082028036833780820191505090505b5090505f5f9054906101000a900473ffffffffffffffffffffffffffffffffffffffff1673ffffffffffffffffffffffffffffffffffffffff166370a08231306040518263ffffffff1660e01b81526004016102479190610d58565b602060405180830381865afa158015610262573d5f5f3e3d5ffd5b505050506040513d601f19601f820116820180604052508101906102869190610f3d565b815f8151811061029957610298610f68565b5b60200260200101818152505060015f9054906101000a900473ffffffffffffffffffffffffffffffffffffffff1673ffffffffffffffffffffffffffffffffffffffff166370a08231306040518263ffffffff1660e01b81526004016102ff9190610d58565b602060405180830381865afa15801561031a573d5f5f3e3d5ffd5b505050506040513d601f19601f8201168201806040525081019061033e9190610f3d565b8160018151811061035257610351610f68565b5b60200260200101818152505061037360035482610a5390919063ffffffff16565b91505090565b60025f9054906101000a900473ffffffffffffffffffffffffffffffffffffffff1681565b5f821180156103ac57505f81115b6103eb576040517f08c379a00000000000000000000000000000000000000000000000000000000081526004016103e290610fef565b60405180910390fd5b5f5f9054906101000a900473ffffffffffffffffffffffffffffffffffffffff1673ffffffffffffffffffffffffffffffffffffffff166323b872dd3330856040518463ffffffff1660e01b81526004016104489392919061100d565b6020604051808303815f875af1158015610464573d5f5f3e3d5ffd5b505050506040513d601f19601f820116820180604052508101906104889190611077565b5060015f9054906101000a900473ffffffffffffffffffffffffffffffffffffffff1673ffffffffffffffffffffffffffffffffffffffff166323b872dd3330846040518463ffffffff1660e01b81526004016104e79392919061100d565b6020604051808303815f875af1158015610503573d5f5f3e3d5ffd5b505050506040513d601f19601f820116820180604052508101906105279190611077565b505f6002828461053791906110cf565b610541919061112f565b905060025f9054906101000a900473ffffffffffffffffffffffffffffffffffffffff1673ffffffffffffffffffffffffffffffffffffffff166340c10f1933836040518363ffffffff1660e01b815260040161059f92919061115f565b5f604051808303815f87803b1580156105b6575f5ffd5b505af11580156105c8573d5f5f3e3d5ffd5b50505050505050565b60015f9054906101000a900473ffffffffffffffffffffffffffffffffffffffff1681565b5f5f9054906101000a900473ffffffffffffffffffffffffffffffffffffffff1673ffffffffffffffffffffffffffffffffffffffff168373ffffffffffffffffffffffffffffffffffffffff16148061069c575060015f9054906101000a900473ffffffffffffffffffffffffffffffffffffffff1673ffffffffffffffffffffffffffffffffffffffff168373ffffffffffffffffffffffffffffffffffffffff16145b6106db576040517f08c379a00000000000000000000000000000000000000000000000000000000081526004016106d2906111d0565b60405180910390fd5b5f5f9054906101000a900473ffffffffffffffffffffffffffffffffffffffff1673ffffffffffffffffffffffffffffffffffffffff168273ffffffffffffffffffffffffffffffffffffffff161480610781575060015f9054906101000a900473ffffffffffffffffffffffffffffffffffffffff1673ffffffffffffffffffffffffffffffffffffffff168273ffffffffffffffffffffffffffffffffffffffff16145b6107c0576040517f08c379a00000000000000000000000000000000000000000000000000000000081526004016107b7906111d0565b60405180910390fd5b8173ffffffffffffffffffffffffffffffffffffffff168373ffffffffffffffffffffffffffffffffffffffff160361082e576040517f08c379a000000000000000000000000000000000000000000000000000000000815260040161082590611238565b60405180910390fd5b8273ffffffffffffffffffffffffffffffffffffffff166323b872dd3330846040518463ffffffff1660e01b815260040161086b9392919061100d565b6020604051808303815f875af1158015610887573d5f5f3e3d5ffd5b505050506040513d601f19601f820116820180604052508101906108ab9190611077565b505f8373ffffffffffffffffffffffffffffffffffffffff166370a08231306040518263ffffffff1660e01b81526004016108e69190610d58565b602060405180830381865afa158015610901573d5f5f3e3d5ffd5b505050506040513d601f19601f820116820180604052508101906109259190610f3d565b90505f6109306101a0565b90505f6109406003548484610bee565b90505f818673ffffffffffffffffffffffffffffffffffffffff166370a08231306040518263ffffffff1660e01b815260040161097d9190610d58565b602060405180830381865afa158015610998573d5f5f3e3d5ffd5b505050506040513d601f19601f820116820180604052508101906109bc9190610f3d565b6109c69190611256565b90508573ffffffffffffffffffffffffffffffffffffffff1663a9059cbb33836040518363ffffffff1660e01b8152600401610a0392919061115f565b6020604051808303815f875af1158015610a1f573d5f5f3e3d5ffd5b505050506040513d601f19601f82011682018060405250810190610a439190611077565b5050505050505050565b60035481565b5f5f835190505f5f90505f5f90505b82811015610a9f57858181518110610a7d57610a7c610f68565b5b602002602001015182610a9091906110cf565b91508080600101915050610a62565b505f8103610ab1575f92505050610be8565b8092505f5f90505b60ff811015610be4575f8490505f5f90505b84811015610b1e5784888281518110610ae757610ae6610f68565b5b6020026020010151610af99190611289565b8683610b059190611289565b610b0f919061112f565b91508080600101915050610acb565b505f85905081600186610b3191906110cf565b610b3b9190611289565b86600189610b499190611256565b610b539190611289565b610b5d91906110cf565b868684610b6a9190611289565b87878b610b779190611289565b610b819190611289565b610b8b91906110cf565b610b959190611289565b610b9f919061112f565b95506001818711610bbb578682610bb69190611256565b610bc8565b8187610bc79190611256565b5b1015610bd5575050610be4565b50508080600101915050610ab9565b5050505b92915050565b5f5f600284610bfd9190611289565b8384610c099190611289565b610c13919061112f565b905083600486610c239190611289565b610c2d9190611289565b670de0b6b3a76400008483610c429190611289565b610c4c9190611289565b610c56919061112f565b90505f848685610c66919061112f565b610c7091906110cf565b90508392505f5f90505b610100811015610d0f575f8490508583866002610c979190611289565b610ca191906110cf565b610cab9190611256565b848687610cb89190611289565b610cc291906110cf565b610ccc919061112f565b94506001818611610ce8578582610ce39190611256565b610cf5565b8186610cf49190611256565b5b1015610d015750610d0f565b508080600101915050610c7a565b5050509392505050565b5f73ffffffffffffffffffffffffffffffffffffffff82169050919050565b5f610d4282610d19565b9050919050565b610d5281610d38565b82525050565b5f602082019050610d6b5f830184610d49565b92915050565b5f819050919050565b610d8381610d71565b82525050565b5f602082019050610d9c5f830184610d7a565b92915050565b5f819050919050565b5f610dc5610dc0610dbb84610d19565b610da2565b610d19565b9050919050565b5f610dd682610dab565b9050919050565b5f610de782610dcc565b9050919050565b610df781610ddd565b82525050565b5f602082019050610e105f830184610dee565b92915050565b5f5ffd5b610e2381610d71565b8114610e2d575f5ffd5b50565b5f81359050610e3e81610e1a565b92915050565b5f5f60408385031215610e5a57610e59610e16565b5b5f610e6785828601610e30565b9250506020610e7885828601610e30565b9150509250929050565b610e8b81610d38565b8114610e95575f5ffd5b50565b5f81359050610ea681610e82565b92915050565b5f5f5f60608486031215610ec357610ec2610e16565b5b5f610ed086828701610e98565b9350506020610ee186828701610e98565b9250506040610ef286828701610e30565b9150509250925092565b7f4e487b71000000000000000000000000000000000000000000000000000000005f52604160045260245ffd5b5f81519050610f3781610e1a565b92915050565b5f60208284031215610f5257610f51610e16565b5b5f610f5f84828501610f29565b91505092915050565b7f4e487b71000000000000000000000000000000000000000000000000000000005f52603260045260245ffd5b5f82825260208201905092915050565b7f496e76616c696420616d6f756e747300000000000000000000000000000000005f82015250565b5f610fd9600f83610f95565b9150610fe482610fa5565b602082019050919050565b5f6020820190508181035f83015261100681610fcd565b9050919050565b5f6060820190506110205f830186610d49565b61102d6020830185610d49565b61103a6040830184610d7a565b949350505050565b5f8115159050919050565b61105681611042565b8114611060575f5ffd5b50565b5f815190506110718161104d565b92915050565b5f6020828403121561108c5761108b610e16565b5b5f61109984828501611063565b91505092915050565b7f4e487b71000000000000000000000000000000000000000000000000000000005f52601160045260245ffd5b5f6110d982610d71565b91506110e483610d71565b92508282019050808211156110fc576110fb6110a2565b5b92915050565b7f4e487b71000000000000000000000000000000000000000000000000000000005f52601260045260245ffd5b5f61113982610d71565b915061114483610d71565b92508261115457611153611102565b5b828204905092915050565b5f6040820190506111725f830185610d49565b61117f6020830184610d7a565b9392505050565b7f496e76616c696420746f6b656e000000000000000000000000000000000000005f82015250565b5f6111ba600d83610f95565b91506111c582611186565b602082019050919050565b5f6020820190508181035f8301526111e7816111ae565b9050919050565b7f53616d6520746f6b656e000000000000000000000000000000000000000000005f82015250565b5f611222600a83610f95565b915061122d826111ee565b602082019050919050565b5f6020820190508181035f83015261124f81611216565b9050919050565b5f61126082610d71565b915061126b83610d71565b9250828203905081811115611283576112826110a2565b5b92915050565b5f61129382610d71565b915061129e83610d71565b92508282026112ac81610d71565b915082820484148315176112c3576112c26110a2565b5b509291505056fea2646970667358221220c0f5451d2aec530f4f6ab8226dca07ecfcc634e1eb63ec4c709947275d1b084664736f6c634300081d0033608060405234801561000f575f5ffd5b50604051611669380380611669833981810160405281019061003191906101e9565b81818160039081610042919061046f565b508060049081610052919061046f565b5050503360055f6101000a81548173ffffffffffffffffffffffffffffffffffffffff021916908373ffffffffffffffffffffffffffffffffffffffff160217905550505061053e565b5f604051905090565b5f5ffd5b5f5ffd5b5f5ffd5b5f5ffd5b5f601f19601f8301169050919050565b7f4e487b71000000000000000000000000000000000000000000000000000000005f52604160045260245ffd5b6100fb826100b5565b810181811067ffffffffffffffff8211171561011a576101196100c5565b5b80604052505050565b5f61012c61009c565b905061013882826100f2565b919050565b5f67ffffffffffffffff821115610157576101566100c5565b5b610160826100b5565b9050602081019050919050565b8281835e5f83830152505050565b5f61018d6101888461013d565b610123565b9050828152602081018484840111156101a9576101a86100b1565b5b6101b484828561016d565b509392505050565b5f82601f8301126101d0576101cf6100ad565b5b81516101e084826020860161017b565b91505092915050565b5f5f604083850312156101ff576101fe6100a5565b5b5f83015167ffffffffffffffff81111561021c5761021b6100a9565b5b610228858286016101bc565b925050602083015167ffffffffffffffff811115610249576102486100a9565b5b610255858286016101bc565b9150509250929050565b5f81519050919050565b7f4e487b71000000000000000000000000000000000000000000000000000000005f52602260045260245ffd5b5f60028204905060018216806102ad57607f821691505b6020821081036102c0576102bf610269565b5b50919050565b5f819050815f5260205f209050919050565b5f6020601f8301049050919050565b5f82821b905092915050565b5f600883026103227fffffffffffffffffffffffffffffffffffffffffffffffffffffffffffffffff826102e7565b61032c86836102e7565b95508019841693508086168417925050509392505050565b5f819050919050565b5f819050919050565b5f61037061036b61036684610344565b61034d565b610344565b9050919050565b5f819050919050565b61038983610356565b61039d61039582610377565b8484546102f3565b825550505050565b5f5f905090565b6103b46103a5565b6103bf818484610380565b505050565b5b818110156103e2576103d75f826103ac565b6001810190506103c5565b5050565b601f821115610427576103f8816102c6565b610401846102d8565b81016020851015610410578190505b61042461041c856102d8565b8301826103c4565b50505b505050565b5f82821c905092915050565b5f6104475f198460080261042c565b1980831691505092915050565b5f61045f8383610438565b9150826002028217905092915050565b6104788261025f565b67ffffffffffffffff811115610491576104906100c5565b5b61049b8254610296565b6104a68282856103e6565b5f60209050601f8311600181146104d7575f84156104c5578287015190505b6104cf8582610454565b865550610536565b601f1984166104e5866102c6565b5f5b8281101561050c578489015182556001820191506020850194506020810190506104e7565b868310156105295784890151610525601f891682610438565b8355505b6001600288020188555050505b505050505050565b61111e8061054b5f395ff3fe608060405234801561000f575f5ffd5b50600436106100b2575f3560e01c806340c10f191161006f57806340c10f191461018e57806370a08231146101aa57806395d89b41146101da5780639dc29fac146101f8578063a9059cbb14610214578063dd62ed3e14610244576100b2565b806306fdde03146100b6578063095ea7b3146100d457806316f0115b1461010457806318160ddd1461012257806323b872dd14610140578063313ce56714610170575b5f5ffd5b6100be610274565b6040516100cb9190610d2f565b60405180910390f35b6100ee60048036038101906100e99190610de0565b610304565b6040516100fb9190610e38565b60405180910390f35b61010c610326565b6040516101199190610e60565b60405180910390f35b61012a61034b565b6040516101379190610e88565b60405180910390f35b61015a60048036038101906101559190610ea1565b610354565b6040516101679190610e38565b60405180910390f35b610178610382565b6040516101859190610f0c565b60405180910390f35b6101a860048036038101906101a39190610de0565b61038a565b005b6101c460048036038101906101bf9190610f25565b610427565b6040516101d19190610e88565b60405180910390f35b6101e261046c565b6040516101ef9190610d2f565b60405180910390f35b610212600480360381019061020d9190610de0565b6104fc565b005b61022e60048036038101906102299190610de0565b610599565b60405161023b9190610e38565b60405180910390f35b61025e60048036038101906102599190610f50565b6105bb565b60405161026b9190610e88565b60405180910390f35b60606003805461028390610fbb565b80601f01602080910402602001604051908101604052809291908181526020018280546102af90610fbb565b80156102fa5780601f106102d1576101008083540402835291602001916102fa565b820191905f5260205f20905b8154815290600101906020018083116102dd57829003601f168201915b5050505050905090565b5f5f61030e61063d565b905061031b818585610644565b600191505092915050565b60055f9054906101000a900473ffffffffffffffffffffffffffffffffffffffff1681565b5f600254905090565b5f5f61035e61063d565b905061036b858285610656565b6103768585856106e9565b60019150509392505050565b5f6012905090565b60055f9054906101000a900473ffffffffffffffffffffffffffffffffffffffff1673ffffffffffffffffffffffffffffffffffffffff163373ffffffffffffffffffffffffffffffffffffffff1614610419576040517f08c379a000000000000000000000000000000000000000000000000000000000815260040161041090611035565b60405180910390fd5b61042382826107d9565b5050565b5f5f5f8373ffffffffffffffffffffffffffffffffffffffff1673ffffffffffffffffffffffffffffffffffffffff1681526020019081526020015f20549050919050565b60606004805461047b90610fbb565b80601f01602080910402602001604051908101604052809291908181526020018280546104a790610fbb565b80156104f25780601f106104c9576101008083540402835291602001916104f2565b820191905f5260205f20905b8154815290600101906020018083116104d557829003601f168201915b5050505050905090565b60055f9054906101000a900473ffffffffffffffffffffffffffffffffffffffff1673ffffffffffffffffffffffffffffffffffffffff163373ffffffffffffffffffffffffffffffffffffffff161461058b576040517f08c379a000000000000000000000000000000000000000000000000000000000815260040161058290611035565b60405180910390fd5b6105958282610858565b5050565b5f5f6105a361063d565b90506105b08185856106e9565b600191505092915050565b5f60015f8473ffffffffffffffffffffffffffffffffffffffff1673ffffffffffffffffffffffffffffffffffffffff1681526020019081526020015f205f8373ffffffffffffffffffffffffffffffffffffffff1673ffffffffffffffffffffffffffffffffffffffff1681526020019081526020015f2054905092915050565b5f33905090565b61065183838360016108d7565b505050565b5f61066184846105bb565b90507fffffffffffffffffffffffffffffffffffffffffffffffffffffffffffffffff8110156106e357818110156106d4578281836040517ffb8f41b20000000000000000000000000000000000000000000000000000000081526004016106cb93929190611053565b60405180910390fd5b6106e284848484035f6108d7565b5b50505050565b5f73ffffffffffffffffffffffffffffffffffffffff168373ffffffffffffffffffffffffffffffffffffffff1603610759575f6040517f96c6fd1e0000000000000000000000000000000000000000000000000000000081526004016107509190610e60565b60405180910390fd5b5f73ffffffffffffffffffffffffffffffffffffffff168273ffffffffffffffffffffffffffffffffffffffff16036107c9575f6040517fec442f050000000000000000000000000000000000000000000000000000000081526004016107c09190610e60565b60405180910390fd5b6107d4838383610aa6565b505050565b5f73ffffffffffffffffffffffffffffffffffffffff168273ffffffffffffffffffffffffffffffffffffffff1603610849575f6040517fec442f050000000000000000000000000000000000000000000000000000000081526004016108409190610e60565b60405180910390fd5b6108545f8383610aa6565b5050565b5f73ffffffffffffffffffffffffffffffffffffffff168273ffffffffffffffffffffffffffffffffffffffff16036108c8575f6040517f96c6fd1e0000000000000000000000000000000000000000000000000000000081526004016108bf9190610e60565b60405180910390fd5b6108d3825f83610aa6565b5050565b5f73ffffffffffffffffffffffffffffffffffffffff168473ffffffffffffffffffffffffffffffffffffffff1603610947575f6040517fe602df0500000000000000000000000000000000000000000000000000000000815260040161093e9190610e60565b60405180910390fd5b5f73ffffffffffffffffffffffffffffffffffffffff168373ffffffffffffffffffffffffffffffffffffffff16036109b7575f6040517f94280d620000000000000000000000000000000000000000000000000000000081526004016109ae9190610e60565b60405180910390fd5b8160015f8673ffffffffffffffffffffffffffffffffffffffff1673ffffffffffffffffffffffffffffffffffffffff1681526020019081526020015f205f8573ffffffffffffffffffffffffffffffffffffffff1673ffffffffffffffffffffffffffffffffffffffff1681526020019081526020015f20819055508015610aa0578273ffffffffffffffffffffffffffffffffffffffff168473ffffffffffffffffffffffffffffffffffffffff167f8c5be1e5ebec7d5bd14f71427d1e84f3dd0314c0f7b2291e5b200ac8c7c3b92584604051610a979190610e88565b60405180910390a35b50505050565b5f73ffffffffffffffffffffffffffffffffffffffff168373ffffffffffffffffffffffffffffffffffffffff1603610af6578060025f828254610aea91906110b5565b92505081905550610bc4565b5f5f5f8573ffffffffffffffffffffffffffffffffffffffff1673ffffffffffffffffffffffffffffffffffffffff1681526020019081526020015f2054905081811015610b7f578381836040517fe450d38c000000000000000000000000000000000000000000000000000000008152600401610b7693929190611053565b60405180910390fd5b8181035f5f8673ffffffffffffffffffffffffffffffffffffffff1673ffffffffffffffffffffffffffffffffffffffff1681526020019081526020015f2081905550505b5f73ffffffffffffffffffffffffffffffffffffffff168273ffffffffffffffffffffffffffffffffffffffff1603610c0b578060025f8282540392505081905550610c55565b805f5f8473ffffffffffffffffffffffffffffffffffffffff1673ffffffffffffffffffffffffffffffffffffffff1681526020019081526020015f205f82825401925050819055505b8173ffffffffffffffffffffffffffffffffffffffff168373ffffffffffffffffffffffffffffffffffffffff167fddf252ad1be2c89b69c2b068fc378daa952ba7f163c4a11628f55a4df523b3ef83604051610cb29190610e88565b60405180910390a3505050565b5f81519050919050565b5f82825260208201905092915050565b8281835e5f83830152505050565b5f601f19601f8301169050919050565b5f610d0182610cbf565b610d0b8185610cc9565b9350610d1b818560208601610cd9565b610d2481610ce7565b840191505092915050565b5f6020820190508181035f830152610d478184610cf7565b905092915050565b5f5ffd5b5f73ffffffffffffffffffffffffffffffffffffffff82169050919050565b5f610d7c82610d53565b9050919050565b610d8c81610d72565b8114610d96575f5ffd5b50565b5f81359050610da781610d83565b92915050565b5f819050919050565b610dbf81610dad565b8114610dc9575f5ffd5b50565b5f81359050610dda81610db6565b92915050565b5f5f60408385031215610df657610df5610d4f565b5b5f610e0385828601610d99565b9250506020610e1485828601610dcc565b9150509250929050565b5f8115159050919050565b610e3281610e1e565b82525050565b5f602082019050610e4b5f830184610e29565b92915050565b610e5a81610d72565b82525050565b5f602082019050610e735f830184610e51565b92915050565b610e8281610dad565b82525050565b5f602082019050610e9b5f830184610e79565b92915050565b5f5f5f60608486031215610eb857610eb7610d4f565b5b5f610ec586828701610d99565b9350506020610ed686828701610d99565b9250506040610ee786828701610dcc565b9150509250925092565b5f60ff82169050919050565b610f0681610ef1565b82525050565b5f602082019050610f1f5f830184610efd565b92915050565b5f60208284031215610f3a57610f39610d4f565b5b5f610f4784828501610d99565b91505092915050565b5f5f60408385031215610f6657610f65610d4f565b5b5f610f7385828601610d99565b9250506020610f8485828601610d99565b9150509250929050565b7f4e487b71000000000000000000000000000000000000000000000000000000005f52602260045260245ffd5b5f6002820490506001821680610fd257607f821691505b602082108103610fe557610fe4610f8e565b5b50919050565b7f4e6f7420706f6f6c0000000000000000000000000000000000000000000000005f82015250565b5f61101f600883610cc9565b915061102a82610feb565b602082019050919050565b5f6020820190508181035f83015261104c81611013565b9050919050565b5f6060820190506110665f830186610e51565b6110736020830185610e79565b6110806040830184610e79565b949350505050565b7f4e487b71000000000000000000000000000000000000000000000000000000005f52601160045260245ffd5b5f6110bf82610dad565b91506110ca83610dad565b92508282019050808211156110e2576110e1611088565b5b9291505056fea2646970667358221220f9ece92d1dbbae1744cb914176ff40f42e37770c56ec4bcc359b4d7eac298bb564736f6c634300081d0033","linkReferences":{}},"methodIdentifiers":{"A()":"f446c1d0","addLiquidity(uint256,uint256)":"9cd441da","getD()":"1a14ff7a","lpToken()":"5fcbd285","swap(address,address,uint256)":"df791e50","token0()":"0dfe1681","token1()":"d21220a7","totalSupply()":"18160ddd"},"id":7}