{"abi":[{"type":"constructor","inputs":[{"name":"_crv","type":"address","internalType":"address"}],"stateMutability":"nonpayable"},{"type":"function","name":"crv","inputs":[],"outputs":[{"name":"","type":"address","internalType":"contract IERC20"}],"stateMutability":"view"},{"type":"function","name":"getVotes","inputs":[{"name":"user","type":"address","internalType":"address"}],"outputs":[{"name":"","type":"uint256","internalType":"uint256"}],"stateMutability":"view"},{"type":"function","name":"lock","inputs":[{"name":"amount","type":"uint256","internalType":"uint256"},{"name":"time","type":"uint256","internalType":"uint256"}],"outputs":[],"stateMutability":"nonpayable"},{"type":"function","name":"locks","inputs":[{"name":"","type":"address","internalType":"address"}],"outputs":[{"name":"amount","type":"uint256","internalType":"uint256"},{"name":"unlockTime","type":"uint256","internalType":"uint256"}],"stateMutability":"view"}],"bytecode":{"object":"0x608060405234801561000f575f5ffd5b506040516107ce3803806107ce833981810160405281019061003191906100d4565b805f5f6101000a81548173ffffffffffffffffffffffffffffffffffffffff021916908373ffffffffffffffffffffffffffffffffffffffff160217905550506100ff565b5f5ffd5b5f73ffffffffffffffffffffffffffffffffffffffff82169050919050565b5f6100a38261007a565b9050919050565b6100b381610099565b81146100bd575f5ffd5b50565b5f815190506100ce816100aa565b92915050565b5f602082840312156100e9576100e8610076565b5b5f6100f6848285016100c0565b91505092915050565b6106c28061010c5f395ff3fe608060405234801561000f575f5ffd5b506004361061004a575f3560e01c80631338736f1461004e5780635de9a1371461006a5780636a4874a11461009b5780639ab24eb0146100b9575b5f5ffd5b61006860048036038101906100639190610349565b6100e9565b005b610084600480360381019061007f91906103e1565b610234565b60405161009292919061041b565b60405180910390f35b6100a3610254565b6040516100b0919061049d565b60405180910390f35b6100d360048036038101906100ce91906103e1565b610278565b6040516100e091906104b6565b60405180910390f35b42811161012b576040517f08c379a000000000000000000000000000000000000000000000000000000000815260040161012290610529565b60405180910390fd5b5f5f9054906101000a900473ffffffffffffffffffffffffffffffffffffffff1673ffffffffffffffffffffffffffffffffffffffff166323b872dd3330856040518463ffffffff1660e01b815260040161018893929190610556565b6020604051808303815f875af11580156101a4573d5f5f3e3d5ffd5b505050506040513d601f19601f820116820180604052508101906101c891906105c0565b5060405180604001604052808381526020018281525060015f3373ffffffffffffffffffffffffffffffffffffffff1673ffffffffffffffffffffffffffffffffffffffff1681526020019081526020015f205f820151815f0155602082015181600101559050505050565b6001602052805f5260405f205f91509050805f0154908060010154905082565b5f5f9054906101000a900473ffffffffffffffffffffffffffffffffffffffff1681565b5f5f60015f8473ffffffffffffffffffffffffffffffffffffffff1673ffffffffffffffffffffffffffffffffffffffff1681526020019081526020015f206040518060400160405290815f82015481526020016001820154815250509050806020015142106102eb575f91505061030d565b4281602001516102fb9190610618565b815f0151610309919061064b565b9150505b919050565b5f5ffd5b5f819050919050565b61032881610316565b8114610332575f5ffd5b50565b5f813590506103438161031f565b92915050565b5f5f6040838503121561035f5761035e610312565b5b5f61036c85828601610335565b925050602061037d85828601610335565b9150509250929050565b5f73ffffffffffffffffffffffffffffffffffffffff82169050919050565b5f6103b082610387565b9050919050565b6103c0816103a6565b81146103ca575f5ffd5b50565b5f813590506103db816103b7565b92915050565b5f602082840312156103f6576103f5610312565b5b5f610403848285016103cd565b91505092915050565b61041581610316565b82525050565b5f60408201905061042e5f83018561040c565b61043b602083018461040c565b9392505050565b5f819050919050565b5f61046561046061045b84610387565b610442565b610387565b9050919050565b5f6104768261044b565b9050919050565b5f6104878261046c565b9050919050565b6104978161047d565b82525050565b5f6020820190506104b05f83018461048e565b92915050565b5f6020820190506104c95f83018461040c565b92915050565b5f82825260208201905092915050565b7f496e76616c69642074696d6500000000000000000000000000000000000000005f82015250565b5f610513600c836104cf565b915061051e826104df565b602082019050919050565b5f6020820190508181035f83015261054081610507565b9050919050565b610550816103a6565b82525050565b5f6060820190506105695f830186610547565b6105766020830185610547565b610583604083018461040c565b949350505050565b5f8115159050919050565b61059f8161058b565b81146105a9575f5ffd5b50565b5f815190506105ba81610596565b92915050565b5f602082840312156105d5576105d4610312565b5b5f6105e2848285016105ac565b91505092915050565b7f4e487b71000000000000000000000000000000000000000000000000000000005f52601160045260245ffd5b5f61062282610316565b915061062d83610316565b9250828203905081811115610645576106446105eb565b5b92915050565b5f61065582610316565b915061066083610316565b925082820261066e81610316565b91508282048414831517610685576106846105eb565b5b509291505056fea2646970667358221220fbe9aa71398893f8122861731be1f67afc8510575c9c448fde03cec28c3aa68d64736f6c634300081d0033","linkReferences":{}},"methodIdentifiers":{"crv()":"6a4874a1","getVotes(address)":"9ab24eb0","lock(uint256,uint256)":"1338736f","locks(address)":"5de9a137"},"id":2}